{
  "contractName": "STCSwapper",
  "abi": [
    {
      "inputs": [
        {
          "internalType": "address",
          "name": "stc_v1",
          "type": "address"
        },
        {
          "internalType": "address",
          "name": "stc_v2",
          "type": "address"
        },
        {
          "internalType": "uint256",
          "name": "migration_bonus",
          "type": "uint256"
        },
        {
          "internalType": "address",
          "name": "owner",
          "type": "address"
        }
      ],
      "stateMutability": "nonpayable",
      "type": "constructor"
    },
    {
      "anonymous": false,
      "inputs": [
        {
          "indexed": true,
          "internalType": "address",
          "name": "previousOwner",
          "type": "address"
        },
        {
          "indexed": true,
          "internalType": "address",
          "name": "newOwner",
          "type": "address"
        }
      ],
      "name": "OwnershipTransferred",
      "type": "event"
    },
    {
      "stateMutability": "payable",
      "type": "fallback"
    },
    {
      "inputs": [],
      "name": "owner",
      "outputs": [
        {
          "internalType": "address",
          "name": "",
          "type": "address"
        }
      ],
      "stateMutability": "view",
      "type": "function"
    },
    {
      "inputs": [],
      "name": "renounceOwnership",
      "outputs": [],
      "stateMutability": "nonpayable",
      "type": "function"
    },
    {
      "inputs": [
        {
          "internalType": "address",
          "name": "newOwner",
          "type": "address"
        }
      ],
      "name": "transferOwnership",
      "outputs": [],
      "stateMutability": "nonpayable",
      "type": "function"
    },
    {
      "stateMutability": "payable",
      "type": "receive"
    },
    {
      "inputs": [],
      "name": "doSwap",
      "outputs": [],
      "stateMutability": "nonpayable",
      "type": "function"
    },
    {
      "inputs": [],
      "name": "migrationBonus",
      "outputs": [
        {
          "internalType": "uint256",
          "name": "",
          "type": "uint256"
        }
      ],
      "stateMutability": "view",
      "type": "function"
    },
    {
      "inputs": [
        {
          "internalType": "uint256",
          "name": "migration_bonus",
          "type": "uint256"
        }
      ],
      "name": "setMigrationBonus",
      "outputs": [],
      "stateMutability": "nonpayable",
      "type": "function"
    },
    {
      "inputs": [],
      "name": "closeMigration",
      "outputs": [],
      "stateMutability": "nonpayable",
      "type": "function"
    }
  ],
  "bytecode": "0x60806040523480156200001157600080fd5b5060405162001d1838038062001d18833981810160405281019062000037919062000598565b6000620000496200036360201b60201c565b9050806000806101000a81548173ffffffffffffffffffffffffffffffffffffffff021916908373ffffffffffffffffffffffffffffffffffffffff1602179055508073ffffffffffffffffffffffffffffffffffffffff16600073ffffffffffffffffffffffffffffffffffffffff167f8be0079c531659141344cd1fd0a4f28419497f9722a3daafe3b4186f6b6457e060405160405180910390a35083600160006101000a81548173ffffffffffffffffffffffffffffffffffffffff021916908373ffffffffffffffffffffffffffffffffffffffff16021790555082600260006101000a81548173ffffffffffffffffffffffffffffffffffffffff021916908373ffffffffffffffffffffffffffffffffffffffff160217905550816003819055506002600160009054906101000a900473ffffffffffffffffffffffffffffffffffffffff1673ffffffffffffffffffffffffffffffffffffffff1663313ce5676040518163ffffffff1660e01b815260040160206040518083038186803b158015620001db57600080fd5b505afa158015620001f0573d6000803e3d6000fd5b505050506040513d601f19601f8201168201806040525081019062000216919062000604565b60ff16146200025c576040517f08c379a0000000000000000000000000000000000000000000000000000000008152600401620002539062000732565b60405180910390fd5b6012600260009054906101000a900473ffffffffffffffffffffffffffffffffffffffff1673ffffffffffffffffffffffffffffffffffffffff1663313ce5676040518163ffffffff1660e01b815260040160206040518083038186803b158015620002c757600080fd5b505afa158015620002dc573d6000803e3d6000fd5b505050506040513d601f19601f8201168201806040525081019062000302919062000604565b60ff161462000348576040517f08c379a00000000000000000000000000000000000000000000000000000000081526004016200033f90620006ee565b60405180910390fd5b62000359816200036b60201b60201c565b5050505062000914565b600033905090565b6200037b6200036360201b60201c565b73ffffffffffffffffffffffffffffffffffffffff16620003a16200052a60201b60201c565b73ffffffffffffffffffffffffffffffffffffffff1614620003fa576040517f08c379a0000000000000000000000000000000000000000000000000000000008152600401620003f19062000710565b60405180910390fd5b600073ffffffffffffffffffffffffffffffffffffffff168173ffffffffffffffffffffffffffffffffffffffff1614156200046d576040517f08c379a00000000000000000000000000000000000000000000000000000000081526004016200046490620006cc565b60405180910390fd5b8073ffffffffffffffffffffffffffffffffffffffff1660008054906101000a900473ffffffffffffffffffffffffffffffffffffffff1673ffffffffffffffffffffffffffffffffffffffff167f8be0079c531659141344cd1fd0a4f28419497f9722a3daafe3b4186f6b6457e060405160405180910390a3806000806101000a81548173ffffffffffffffffffffffffffffffffffffffff021916908373ffffffffffffffffffffffffffffffffffffffff16021790555050565b60008060009054906101000a900473ffffffffffffffffffffffffffffffffffffffff16905090565b6000815190506200056481620008c6565b92915050565b6000815190506200057b81620008e0565b92915050565b6000815190506200059281620008fa565b92915050565b60008060008060808587031215620005af57600080fd5b6000620005bf8782880162000553565b9450506020620005d28782880162000553565b9350506040620005e5878288016200056a565b9250506060620005f88782880162000553565b91505092959194509250565b6000602082840312156200061757600080fd5b6000620006278482850162000581565b91505092915050565b60006200063f60268362000754565b91506200064c82620007b0565b604082019050919050565b60006200066660258362000754565b91506200067382620007ff565b604082019050919050565b60006200068d60208362000754565b91506200069a826200084e565b602082019050919050565b6000620006b460258362000754565b9150620006c18262000877565b604082019050919050565b60006020820190508181036000830152620006e78162000630565b9050919050565b60006020820190508181036000830152620007098162000657565b9050919050565b600060208201905081810360008301526200072b816200067e565b9050919050565b600060208201905081810360008301526200074d81620006a5565b9050919050565b600082825260208201905092915050565b6000620007728262000779565b9050919050565b600073ffffffffffffffffffffffffffffffffffffffff82169050919050565b6000819050919050565b600060ff82169050919050565b7f4f776e61626c653a206e6577206f776e657220697320746865207a65726f206160008201527f6464726573730000000000000000000000000000000000000000000000000000602082015250565b7f535443537761707065723a20696e76616c69642061646472657373206f66205360008201527f5443205632000000000000000000000000000000000000000000000000000000602082015250565b7f4f776e61626c653a2063616c6c6572206973206e6f7420746865206f776e6572600082015250565b7f535443537761707065723a20696e76616c69642061646472657373206f66205360008201527f5443205631000000000000000000000000000000000000000000000000000000602082015250565b620008d18162000765565b8114620008dd57600080fd5b50565b620008eb8162000799565b8114620008f757600080fd5b50565b6200090581620007a3565b81146200091157600080fd5b50565b6113f480620009246000396000f3fe6080604052600436106100745760003560e01c8063b03d67fe1161004e578063b03d67fe146100ea578063bdf7259914610101578063c8cde79914610118578063f2fde38b146101415761007b565b80631a967b231461007d578063715018a6146100a85780638da5cb5b146100bf5761007b565b3661007b57005b005b34801561008957600080fd5b5061009261016a565b60405161009f9190611019565b60405180910390f35b3480156100b457600080fd5b506100bd610174565b005b3480156100cb57600080fd5b506100d46102ae565b6040516100e19190610e7e565b60405180910390f35b3480156100f657600080fd5b506100ff6102d7565b005b34801561010d57600080fd5b506101166105b1565b005b34801561012457600080fd5b5061013f600480360381019061013a9190610c9b565b6109be565b005b34801561014d57600080fd5b5061016860048036038101906101639190610c49565b610a44565b005b6000600354905090565b61017c610bed565b73ffffffffffffffffffffffffffffffffffffffff1661019a6102ae565b73ffffffffffffffffffffffffffffffffffffffff16146101f0576040517f08c379a00000000000000000000000000000000000000000000000000000000081526004016101e790610fb9565b60405180910390fd5b600073ffffffffffffffffffffffffffffffffffffffff1660008054906101000a900473ffffffffffffffffffffffffffffffffffffffff1673ffffffffffffffffffffffffffffffffffffffff167f8be0079c531659141344cd1fd0a4f28419497f9722a3daafe3b4186f6b6457e060405160405180910390a360008060006101000a81548173ffffffffffffffffffffffffffffffffffffffff021916908373ffffffffffffffffffffffffffffffffffffffff160217905550565b60008060009054906101000a900473ffffffffffffffffffffffffffffffffffffffff16905090565b6102df610bed565b73ffffffffffffffffffffffffffffffffffffffff166102fd6102ae565b73ffffffffffffffffffffffffffffffffffffffff1614610353576040517f08c379a000000000000000000000000000000000000000000000000000000000815260040161034a90610fb9565b60405180910390fd5b600061035d610bed565b905061036960006109be565b60008173ffffffffffffffffffffffffffffffffffffffff164760405161038f90610e69565b60006040518083038185875af1925050503d80600081146103cc576040519150601f19603f3d011682016040523d82523d6000602084013e6103d1565b606091505b5050905080610415576040517f08c379a000000000000000000000000000000000000000000000000000000000815260040161040c90610fd9565b60405180910390fd5b600260009054906101000a900473ffffffffffffffffffffffffffffffffffffffff1673ffffffffffffffffffffffffffffffffffffffff1663a9059cbb83600260009054906101000a900473ffffffffffffffffffffffffffffffffffffffff1673ffffffffffffffffffffffffffffffffffffffff166370a08231306040518263ffffffff1660e01b81526004016104af9190610e7e565b60206040518083038186803b1580156104c757600080fd5b505afa1580156104db573d6000803e3d6000fd5b505050506040513d601f19601f820116820180604052508101906104ff9190610cc4565b6040518363ffffffff1660e01b815260040161051c929190610ed0565b602060405180830381600087803b15801561053657600080fd5b505af115801561054a573d6000803e3d6000fd5b505050506040513d601f19601f8201168201806040525081019061056e9190610c72565b6105ad576040517f08c379a00000000000000000000000000000000000000000000000000000000081526004016105a490610f99565b60405180910390fd5b5050565b60006105bb610bed565b90506000600160009054906101000a900473ffffffffffffffffffffffffffffffffffffffff1673ffffffffffffffffffffffffffffffffffffffff166370a08231836040518263ffffffff1660e01b815260040161061a9190610e7e565b60206040518083038186803b15801561063257600080fd5b505afa158015610646573d6000803e3d6000fd5b505050506040513d601f19601f8201168201806040525081019061066a9190610cc4565b9050600081116106af576040517f08c379a00000000000000000000000000000000000000000000000000000000081526004016106a690610f19565b60405180910390fd5b6000806003541180156106c55750620f42408210155b9050801561071357600354471015610712576040517f08c379a000000000000000000000000000000000000000000000000000000000815260040161070990610ef9565b60405180910390fd5b5b600160009054906101000a900473ffffffffffffffffffffffffffffffffffffffff1673ffffffffffffffffffffffffffffffffffffffff166323b872dd8430856040518463ffffffff1660e01b815260040161077293929190610e99565b602060405180830381600087803b15801561078c57600080fd5b505af11580156107a0573d6000803e3d6000fd5b505050506040513d601f19601f820116820180604052508101906107c49190610c72565b610803576040517f08c379a00000000000000000000000000000000000000000000000000000000081526004016107fa90610ff9565b60405180910390fd5b600260009054906101000a900473ffffffffffffffffffffffffffffffffffffffff1673ffffffffffffffffffffffffffffffffffffffff1663a9059cbb84662386f26fc10000856108559190611050565b6040518363ffffffff1660e01b8152600401610872929190610ed0565b602060405180830381600087803b15801561088c57600080fd5b505af11580156108a0573d6000803e3d6000fd5b505050506040513d601f19601f820116820180604052508101906108c49190610c72565b610903576040517f08c379a00000000000000000000000000000000000000000000000000000000081526004016108fa90610f79565b60405180910390fd5b80156109b95760008373ffffffffffffffffffffffffffffffffffffffff1660035460405161093190610e69565b60006040518083038185875af1925050503d806000811461096e576040519150601f19603f3d011682016040523d82523d6000602084013e610973565b606091505b50509050806109b7576040517f08c379a00000000000000000000000000000000000000000000000000000000081526004016109ae90610f59565b60405180910390fd5b505b505050565b6109c6610bed565b73ffffffffffffffffffffffffffffffffffffffff166109e46102ae565b73ffffffffffffffffffffffffffffffffffffffff1614610a3a576040517f08c379a0000000000000000000000000000000000000000000000000000000008152600401610a3190610fb9565b60405180910390fd5b8060038190555050565b610a4c610bed565b73ffffffffffffffffffffffffffffffffffffffff16610a6a6102ae565b73ffffffffffffffffffffffffffffffffffffffff1614610ac0576040517f08c379a0000000000000000000000000000000000000000000000000000000008152600401610ab790610fb9565b60405180910390fd5b600073ffffffffffffffffffffffffffffffffffffffff168173ffffffffffffffffffffffffffffffffffffffff161415610b30576040517f08c379a0000000000000000000000000000000000000000000000000000000008152600401610b2790610f39565b60405180910390fd5b8073ffffffffffffffffffffffffffffffffffffffff1660008054906101000a900473ffffffffffffffffffffffffffffffffffffffff1673ffffffffffffffffffffffffffffffffffffffff167f8be0079c531659141344cd1fd0a4f28419497f9722a3daafe3b4186f6b6457e060405160405180910390a3806000806101000a81548173ffffffffffffffffffffffffffffffffffffffff021916908373ffffffffffffffffffffffffffffffffffffffff16021790555050565b600033905090565b600081359050610c0481611379565b92915050565b600081519050610c1981611390565b92915050565b600081359050610c2e816113a7565b92915050565b600081519050610c43816113a7565b92915050565b600060208284031215610c5b57600080fd5b6000610c6984828501610bf5565b91505092915050565b600060208284031215610c8457600080fd5b6000610c9284828501610c0a565b91505092915050565b600060208284031215610cad57600080fd5b6000610cbb84828501610c1f565b91505092915050565b600060208284031215610cd657600080fd5b6000610ce484828501610c34565b91505092915050565b610cf6816110aa565b82525050565b6000610d0960368361103f565b9150610d1482611121565b604082019050919050565b6000610d2c60258361103f565b9150610d3782611170565b604082019050919050565b6000610d4f60268361103f565b9150610d5a826111bf565b604082019050919050565b6000610d7260268361103f565b9150610d7d8261120e565b604082019050919050565b6000610d95601b8361103f565b9150610da08261125d565b602082019050919050565b6000610db8602d8361103f565b9150610dc382611286565b604082019050919050565b6000610ddb60208361103f565b9150610de6826112d5565b602082019050919050565b6000610dfe602d8361103f565b9150610e09826112fe565b604082019050919050565b6000610e21601f8361103f565b9150610e2c8261134d565b602082019050919050565b6000610e44600083611034565b9150610e4f82611376565b600082019050919050565b610e63816110e8565b82525050565b6000610e7482610e37565b9150819050919050565b6000602082019050610e936000830184610ced565b92915050565b6000606082019050610eae6000830186610ced565b610ebb6020830185610ced565b610ec86040830184610e5a565b949350505050565b6000604082019050610ee56000830185610ced565b610ef26020830184610e5a565b9392505050565b60006020820190508181036000830152610f1281610cfc565b9050919050565b60006020820190508181036000830152610f3281610d1f565b9050919050565b60006020820190508181036000830152610f5281610d42565b9050919050565b60006020820190508181036000830152610f7281610d65565b9050919050565b60006020820190508181036000830152610f9281610d88565b9050919050565b60006020820190508181036000830152610fb281610dab565b9050919050565b60006020820190508181036000830152610fd281610dce565b9050919050565b60006020820190508181036000830152610ff281610df1565b9050919050565b6000602082019050818103600083015261101281610e14565b9050919050565b600060208201905061102e6000830184610e5a565b92915050565b600081905092915050565b600082825260208201905092915050565b600061105b826110e8565b9150611066836110e8565b9250817fffffffffffffffffffffffffffffffffffffffffffffffffffffffffffffffff048311821515161561109f5761109e6110f2565b5b828202905092915050565b60006110b5826110c8565b9050919050565b60008115159050919050565b600073ffffffffffffffffffffffffffffffffffffffff82169050919050565b6000819050919050565b7f4e487b7100000000000000000000000000000000000000000000000000000000600052601160045260246000fd5b7f535443537761707065723a20496e73756666696369656e742045544820666f7260008201527f206772616e74696e6720612067617320726566756e6400000000000000000000602082015250565b7f535443537761707065723a2063616c6c657220646f65736e277420686f6c642060008201527f5354435631000000000000000000000000000000000000000000000000000000602082015250565b7f4f776e61626c653a206e6577206f776e657220697320746865207a65726f206160008201527f6464726573730000000000000000000000000000000000000000000000000000602082015250565b7f535443537761707065723a204661696c656420746f206772616e74206761732060008201527f726566756e640000000000000000000000000000000000000000000000000000602082015250565b7f535443537761707065723a206661696c6564207472616e736665720000000000600082015250565b7f535443537761707065723a204661696c656420746f2073656e6420616c6c205360008201527f5443563220746f206f776e657200000000000000000000000000000000000000602082015250565b7f4f776e61626c653a2063616c6c6572206973206e6f7420746865206f776e6572600082015250565b7f535443537761707065723a204661696c656420746f20647261696e204554482060008201527f66726f6d20636f6e747261637400000000000000000000000000000000000000602082015250565b7f535443537761707065723a206661696c6564207472616e7366657246726f6d00600082015250565b50565b611382816110aa565b811461138d57600080fd5b50565b611399816110bc565b81146113a457600080fd5b50565b6113b0816110e8565b81146113bb57600080fd5b5056fea26469706673582212209cf1d2e11d7ebaecd606e03fe266f5a7b79e7f87dd0b4b1e66819a598feaaa0764736f6c63430008030033",
  "immutableReferences": {},
  "source": "/* SPDX-License-Identifier: MIT\n    One way swapper from STCV1 to STCV2\n    NEVER SEND STCV1 DIRECTLY TO THIS CONTRACT\n    Only migrate your STCV1 using swap.studentcoin.org\n    Swaps larger than 10k STC are partially subsidized by covering the TX fee by the contract\n    STCV1: 0xb8B7791b1A445FB1e202683a0a329504772e0E52 Decimals: 2\n    STCV2: 0x15b543e986b8c34074dfc9901136d9355a537e7e Decimals: 18\n*/\n\npragma solidity ^0.8.0;\n\nimport \"@openzeppelin/contracts/access/Ownable.sol\";\nimport \"@openzeppelin/contracts/token/ERC20/ERC20.sol\";\n\ncontract STCSwapper is Ownable {\n    ERC20 private _stc_v1;\n    ERC20 private _stc_v2;\n    /* Migration bonus in wei */\n    uint256 private _migration_bonus;\n\n    constructor(address stc_v1, address stc_v2, uint256 migration_bonus, address owner) {\n        _stc_v1 = ERC20(stc_v1);\n        _stc_v2 = ERC20(stc_v2);\n        _migration_bonus = migration_bonus;\n        require(_stc_v1.decimals() == 2, \"STCSwapper: invalid address of STC V1\");\n        require(_stc_v2.decimals() == 18, \"STCSwapper: invalid address of STC V2\");\n        transferOwnership(owner);\n    }\n\n    function doSwap() public {\n        address sender = _msgSender();\n        uint256 balance = _stc_v1.balanceOf(sender);\n        require(balance > 0, \"STCSwapper: caller doesn't hold STCV1\");\n        bool eligibleForRefund = _migration_bonus > 0 && balance >= 1000000;\n        /* Fail early if we're unable to give a gas refund */\n        if (eligibleForRefund) require(address(this).balance >= _migration_bonus, \"STCSwapper: Insufficient ETH for granting a gas refund\");\n\n        /* Perform the token swap */\n        require(_stc_v1.transferFrom(sender, address(this), balance), \"STCSwapper: failed transferFrom\");\n        require(_stc_v2.transfer(sender, balance*(10**16)), \"STCSwapper: failed transfer\");\n\n        /* Grant a gas refund for a successful swap */\n        if (eligibleForRefund) {\n            (bool sent,) = sender.call{value: _migration_bonus}(\"\");\n            require(sent, \"STCSwapper: Failed to grant gas refund\");\n        }\n    }\n\n    function migrationBonus() public view returns (uint256) {\n        return _migration_bonus;\n    }\n\n    function setMigrationBonus(uint256 migration_bonus) public onlyOwner {\n        _migration_bonus = migration_bonus;\n    }\n\n    /* Sends all ETH and unmigrated STCV2 to owner, STCV1 is locked forever */\n    function closeMigration() public onlyOwner {\n        address sender = _msgSender();\n        setMigrationBonus(0);\n        (bool sent,) = sender.call{value: address(this).balance}(\"\");\n        require(sent, \"STCSwapper: Failed to drain ETH from contract\");\n        require(_stc_v2.transfer(sender, _stc_v2.balanceOf(address(this))), \"STCSwapper: Failed to send all STCV2 to owner\");\n    }\n\n    /* Accept ETH deposits */\n    receive() external payable {}\n    fallback() external payable {}\n}\n",
  "sourcePath": "/home/gorbak25/STUDENT_COIN/stc-token-migration/contracts/STCSwapper.sol",
  "compiler": {
    "name": "solc",
    "version": "0.8.3+commit.8d00100c.Emscripten.clang"
  },
  "schemaVersion": "3.3.4",
  "updatedAt": "2021-04-14T03:49:41.333Z",
  "devdoc": {
    "kind": "dev",
    "methods": {
      "owner()": {
        "details": "Returns the address of the current owner."
      },
      "renounceOwnership()": {
        "details": "Leaves the contract without owner. It will not be possible to call `onlyOwner` functions anymore. Can only be called by the current owner. NOTE: Renouncing ownership will leave the contract without an owner, thereby removing any functionality that is only available to the owner."
      },
      "transferOwnership(address)": {
        "details": "Transfers ownership of the contract to a new account (`newOwner`). Can only be called by the current owner."
      }
    },
    "version": 1
  },
  "userdoc": {
    "kind": "user",
    "methods": {},
    "version": 1
  }
}