{
  "contractName": "STCSwapper",
  "abi": [
    {
      "inputs": [
        {
          "internalType": "address",
          "name": "stc_v1",
          "type": "address"
        },
        {
          "internalType": "address",
          "name": "stc_v2",
          "type": "address"
        },
        {
          "internalType": "uint256",
          "name": "migration_bonus",
          "type": "uint256"
        },
        {
          "internalType": "address",
          "name": "owner",
          "type": "address"
        }
      ],
      "stateMutability": "nonpayable",
      "type": "constructor"
    },
    {
      "anonymous": false,
      "inputs": [
        {
          "indexed": true,
          "internalType": "address",
          "name": "previousOwner",
          "type": "address"
        },
        {
          "indexed": true,
          "internalType": "address",
          "name": "newOwner",
          "type": "address"
        }
      ],
      "name": "OwnershipTransferred",
      "type": "event"
    },
    {
      "stateMutability": "payable",
      "type": "fallback"
    },
    {
      "inputs": [],
      "name": "owner",
      "outputs": [
        {
          "internalType": "address",
          "name": "",
          "type": "address"
        }
      ],
      "stateMutability": "view",
      "type": "function"
    },
    {
      "inputs": [],
      "name": "renounceOwnership",
      "outputs": [],
      "stateMutability": "nonpayable",
      "type": "function"
    },
    {
      "inputs": [
        {
          "internalType": "address",
          "name": "newOwner",
          "type": "address"
        }
      ],
      "name": "transferOwnership",
      "outputs": [],
      "stateMutability": "nonpayable",
      "type": "function"
    },
    {
      "stateMutability": "payable",
      "type": "receive"
    },
    {
      "inputs": [],
      "name": "doSwap",
      "outputs": [],
      "stateMutability": "nonpayable",
      "type": "function"
    },
    {
      "inputs": [],
      "name": "migrationBonus",
      "outputs": [
        {
          "internalType": "uint256",
          "name": "",
          "type": "uint256"
        }
      ],
      "stateMutability": "view",
      "type": "function"
    },
    {
      "inputs": [
        {
          "internalType": "uint256",
          "name": "migration_bonus",
          "type": "uint256"
        }
      ],
      "name": "setMigrationBonus",
      "outputs": [],
      "stateMutability": "nonpayable",
      "type": "function"
    },
    {
      "inputs": [],
      "name": "closeMigration",
      "outputs": [],
      "stateMutability": "nonpayable",
      "type": "function"
    }
  ],
  "bytecode": "0x60806040523480156200001157600080fd5b506040516200127d3803806200127d833981016040819052620000349162000378565b600080546001600160a01b031916339081178255604051909182916000805160206200123d833981519152908290a350600180546001600160a01b038087166001600160a01b03199283168117909355600280549187169190921617905560038390556040805163313ce56760e01b8152905163313ce56791600480820192602092909190829003018186803b158015620000ce57600080fd5b505afa158015620000e3573d6000803e3d6000fd5b505050506040513d601f19601f82011682018060405250810190620001099190620003cb565b60ff166002146200015e5760405162461bcd60e51b815260206004820152602560248201526000805160206200125d833981519152604482015264544320563160d81b60648201526084015b60405180910390fd5b600260009054906101000a90046001600160a01b03166001600160a01b031663313ce5676040518163ffffffff1660e01b815260040160206040518083038186803b158015620001ad57600080fd5b505afa158015620001c2573d6000803e3d6000fd5b505050506040513d601f19601f82011682018060405250810190620001e89190620003cb565b60ff16601214620002395760405162461bcd60e51b815260206004820152602560248201526000805160206200125d8339815191526044820152642a21902b1960d91b606482015260840162000155565b62000244816200024e565b50505050620003f5565b6000546001600160a01b03163314620002aa5760405162461bcd60e51b815260206004820181905260248201527f4f776e61626c653a2063616c6c6572206973206e6f7420746865206f776e6572604482015260640162000155565b6001600160a01b038116620003115760405162461bcd60e51b815260206004820152602660248201527f4f776e61626c653a206e6577206f776e657220697320746865207a65726f206160448201526564647265737360d01b606482015260840162000155565b600080546040516001600160a01b03808516939216916000805160206200123d83398151915291a3600080546001600160a01b0319166001600160a01b0392909216919091179055565b80516001600160a01b03811681146200037357600080fd5b919050565b600080600080608085870312156200038e578384fd5b62000399856200035b565b9350620003a9602086016200035b565b925060408501519150620003c0606086016200035b565b905092959194509250565b600060208284031215620003dd578081fd5b815160ff81168114620003ee578182fd5b9392505050565b610e3880620004056000396000f3fe6080604052600436106100745760003560e01c8063b03d67fe1161004e578063b03d67fe146100ea578063bdf72599146100ff578063c8cde79914610114578063f2fde38b146101345761007b565b80631a967b231461007d578063715018a6146100a05780638da5cb5b146100b55761007b565b3661007b57005b005b34801561008957600080fd5b506003546040519081526020015b60405180910390f35b3480156100ac57600080fd5b5061007b610154565b3480156100c157600080fd5b5060005460405173ffffffffffffffffffffffffffffffffffffffff9091168152602001610097565b3480156100f657600080fd5b5061007b610249565b34801561010b57600080fd5b5061007b6105a3565b34801561012057600080fd5b5061007b61012f366004610d70565b610ade565b34801561014057600080fd5b5061007b61014f366004610d15565b610b64565b60005473ffffffffffffffffffffffffffffffffffffffff1633146101da576040517f08c379a000000000000000000000000000000000000000000000000000000000815260206004820181905260248201527f4f776e61626c653a2063616c6c6572206973206e6f7420746865206f776e657260448201526064015b60405180910390fd5b6000805460405173ffffffffffffffffffffffffffffffffffffffff909116907f8be0079c531659141344cd1fd0a4f28419497f9722a3daafe3b4186f6b6457e0908390a3600080547fffffffffffffffffffffffff0000000000000000000000000000000000000000169055565b60005473ffffffffffffffffffffffffffffffffffffffff1633146102ca576040517f08c379a000000000000000000000000000000000000000000000000000000000815260206004820181905260248201527f4f776e61626c653a2063616c6c6572206973206e6f7420746865206f776e657260448201526064016101d1565b336102d56000610ade565b60008173ffffffffffffffffffffffffffffffffffffffff164760405160006040518083038185875af1925050503d806000811461032f576040519150601f19603f3d011682016040523d82523d6000602084013e610334565b606091505b50509050806103c5576040517f08c379a000000000000000000000000000000000000000000000000000000000815260206004820152602d60248201527f535443537761707065723a204661696c656420746f20647261696e204554482060448201527f66726f6d20636f6e74726163740000000000000000000000000000000000000060648201526084016101d1565b6002546040517f70a0823100000000000000000000000000000000000000000000000000000000815230600482015273ffffffffffffffffffffffffffffffffffffffff9091169063a9059cbb90849083906370a082319060240160206040518083038186803b15801561043857600080fd5b505afa15801561044c573d6000803e3d6000fd5b505050506040513d601f19601f820116820180604052508101906104709190610d88565b6040517fffffffff0000000000000000000000000000000000000000000000000000000060e085901b16815273ffffffffffffffffffffffffffffffffffffffff90921660048301526024820152604401602060405180830381600087803b1580156104db57600080fd5b505af11580156104ef573d6000803e3d6000fd5b505050506040513d601f19601f820116820180604052508101906105139190610d50565b61059f576040517f08c379a000000000000000000000000000000000000000000000000000000000815260206004820152602d60248201527f535443537761707065723a204661696c656420746f2073656e6420616c6c205360448201527f5443563220746f206f776e65720000000000000000000000000000000000000060648201526084016101d1565b5050565b6000336001546040517f70a0823100000000000000000000000000000000000000000000000000000000815273ffffffffffffffffffffffffffffffffffffffff8084166004830152929350600092909116906370a082319060240160206040518083038186803b15801561061757600080fd5b505afa15801561062b573d6000803e3d6000fd5b505050506040513d601f19601f8201168201806040525081019061064f9190610d88565b9050600081116106e1576040517f08c379a000000000000000000000000000000000000000000000000000000000815260206004820152602560248201527f535443537761707065723a2063616c6c657220646f65736e277420686f6c642060448201527f535443563100000000000000000000000000000000000000000000000000000060648201526084016101d1565b6000806003541180156106f75750620f42408210155b9050801561079157600354471015610791576040517f08c379a000000000000000000000000000000000000000000000000000000000815260206004820152603660248201527f535443537761707065723a20496e73756666696369656e742045544820666f7260448201527f206772616e74696e6720612067617320726566756e640000000000000000000060648201526084016101d1565b6001546040517f23b872dd00000000000000000000000000000000000000000000000000000000815273ffffffffffffffffffffffffffffffffffffffff858116600483015230602483015260448201859052909116906323b872dd90606401602060405180830381600087803b15801561080b57600080fd5b505af115801561081f573d6000803e3d6000fd5b505050506040513d601f19601f820116820180604052508101906108439190610d50565b6108a9576040517f08c379a000000000000000000000000000000000000000000000000000000000815260206004820152601f60248201527f535443537761707065723a206661696c6564207472616e7366657246726f6d0060448201526064016101d1565b60025473ffffffffffffffffffffffffffffffffffffffff1663a9059cbb846108d985662386f26fc10000610da0565b6040517fffffffff0000000000000000000000000000000000000000000000000000000060e085901b16815273ffffffffffffffffffffffffffffffffffffffff90921660048301526024820152604401602060405180830381600087803b15801561094457600080fd5b505af1158015610958573d6000803e3d6000fd5b505050506040513d601f19601f8201168201806040525081019061097c9190610d50565b6109e2576040517f08c379a000000000000000000000000000000000000000000000000000000000815260206004820152601b60248201527f535443537761707065723a206661696c6564207472616e73666572000000000060448201526064016101d1565b8015610ad95760035460405160009173ffffffffffffffffffffffffffffffffffffffff8616918381818185875af1925050503d8060008114610a41576040519150601f19603f3d011682016040523d82523d6000602084013e610a46565b606091505b5050905080610ad7576040517f08c379a000000000000000000000000000000000000000000000000000000000815260206004820152602660248201527f535443537761707065723a204661696c656420746f206772616e74206761732060448201527f726566756e64000000000000000000000000000000000000000000000000000060648201526084016101d1565b505b505050565b60005473ffffffffffffffffffffffffffffffffffffffff163314610b5f576040517f08c379a000000000000000000000000000000000000000000000000000000000815260206004820181905260248201527f4f776e61626c653a2063616c6c6572206973206e6f7420746865206f776e657260448201526064016101d1565b600355565b60005473ffffffffffffffffffffffffffffffffffffffff163314610be5576040517f08c379a000000000000000000000000000000000000000000000000000000000815260206004820181905260248201527f4f776e61626c653a2063616c6c6572206973206e6f7420746865206f776e657260448201526064016101d1565b73ffffffffffffffffffffffffffffffffffffffff8116610c88576040517f08c379a000000000000000000000000000000000000000000000000000000000815260206004820152602660248201527f4f776e61626c653a206e6577206f776e657220697320746865207a65726f206160448201527f646472657373000000000000000000000000000000000000000000000000000060648201526084016101d1565b6000805460405173ffffffffffffffffffffffffffffffffffffffff808516939216917f8be0079c531659141344cd1fd0a4f28419497f9722a3daafe3b4186f6b6457e091a3600080547fffffffffffffffffffffffff00000000000000000000000000000000000000001673ffffffffffffffffffffffffffffffffffffffff92909216919091179055565b600060208284031215610d26578081fd5b813573ffffffffffffffffffffffffffffffffffffffff81168114610d49578182fd5b9392505050565b600060208284031215610d61578081fd5b81518015158114610d49578182fd5b600060208284031215610d81578081fd5b5035919050565b600060208284031215610d99578081fd5b5051919050565b6000817fffffffffffffffffffffffffffffffffffffffffffffffffffffffffffffffff0483118215151615610dfd577f4e487b710000000000000000000000000000000000000000000000000000000081526011600452602481fd5b50029056fea26469706673582212209e30a9d7d17a62587903a5d6409df474ee18f0d368fc5a2c913b67c06f89028b64736f6c634300080300338be0079c531659141344cd1fd0a4f28419497f9722a3daafe3b4186f6b6457e0535443537761707065723a20696e76616c69642061646472657373206f662053",
  "immutableReferences": {},
  "source": "/* SPDX-License-Identifier: MIT\n    One way swapper from STC v1 to STC v2\n    NEVER SEND STC v1 DIRECTLY TO THIS CONTRACT\n    Only migrate your STC v1 using swap.studentcoin.org or https://github.com/StudentCoinTeam/stc-token-migration\n    Swaps larger than 10k STC v1 are partially subsidized by covering the TX fee by the contract\n    STCV1: 0xb8B7791b1A445FB1e202683a0a329504772e0E52 Decimals: 2\n    STCV2: 0x15b543e986b8c34074dfc9901136d9355a537e7e Decimals: 18\n*/\n\npragma solidity ^0.8.0;\n\nimport \"@openzeppelin/contracts/access/Ownable.sol\";\nimport \"@openzeppelin/contracts/token/ERC20/ERC20.sol\";\n\ncontract STCSwapper is Ownable {\n    ERC20 private _stc_v1;\n    ERC20 private _stc_v2;\n    /* Migration bonus in wei */\n    uint256 private _migration_bonus;\n\n    constructor(address stc_v1, address stc_v2, uint256 migration_bonus, address owner) {\n        _stc_v1 = ERC20(stc_v1);\n        _stc_v2 = ERC20(stc_v2);\n        _migration_bonus = migration_bonus;\n        require(_stc_v1.decimals() == 2, \"STCSwapper: invalid address of STC V1\");\n        require(_stc_v2.decimals() == 18, \"STCSwapper: invalid address of STC V2\");\n        transferOwnership(owner);\n    }\n\n    function doSwap() public {\n        address sender = _msgSender();\n        uint256 balance = _stc_v1.balanceOf(sender);\n        require(balance > 0, \"STCSwapper: caller doesn't hold STCV1\");\n        bool eligibleForRefund = _migration_bonus > 0 && balance >= 1000000;\n        /* Fail early if we're unable to give a gas refund */\n        if (eligibleForRefund) require(address(this).balance >= _migration_bonus, \"STCSwapper: Insufficient ETH for granting a gas refund\");\n\n        /* Perform the token swap */\n        require(_stc_v1.transferFrom(sender, address(this), balance), \"STCSwapper: failed transferFrom\");\n        require(_stc_v2.transfer(sender, balance*(10**16)), \"STCSwapper: failed transfer\");\n\n        /* Grant a gas refund for a successful swap */\n        if (eligibleForRefund) {\n            (bool sent,) = sender.call{value: _migration_bonus}(\"\");\n            require(sent, \"STCSwapper: Failed to grant gas refund\");\n        }\n    }\n\n    function migrationBonus() public view returns (uint256) {\n        return _migration_bonus;\n    }\n\n    function setMigrationBonus(uint256 migration_bonus) public onlyOwner {\n        _migration_bonus = migration_bonus;\n    }\n\n    /* Sends all ETH and unmigrated STCV2 to owner, STCV1 is locked forever */\n    function closeMigration() public onlyOwner {\n        address sender = _msgSender();\n        setMigrationBonus(0);\n        (bool sent,) = sender.call{value: address(this).balance}(\"\");\n        require(sent, \"STCSwapper: Failed to drain ETH from contract\");\n        require(_stc_v2.transfer(sender, _stc_v2.balanceOf(address(this))), \"STCSwapper: Failed to send all STCV2 to owner\");\n    }\n\n    /* Accept ETH deposits */\n    receive() external payable {}\n    fallback() external payable {}\n}\n",
  "sourcePath": "/home/gorbak25/STUDENT_COIN/stc-token-migration/contracts/STCSwapper.sol",
  "compiler": {
    "name": "solc",
    "version": "0.8.3+commit.8d00100c.Emscripten.clang"
  },
  "schemaVersion": "3.3.4",
  "updatedAt": "2021-04-15T12:37:16.860Z",
  "devdoc": {
    "kind": "dev",
    "methods": {
      "owner()": {
        "details": "Returns the address of the current owner."
      },
      "renounceOwnership()": {
        "details": "Leaves the contract without owner. It will not be possible to call `onlyOwner` functions anymore. Can only be called by the current owner. NOTE: Renouncing ownership will leave the contract without an owner, thereby removing any functionality that is only available to the owner."
      },
      "transferOwnership(address)": {
        "details": "Transfers ownership of the contract to a new account (`newOwner`). Can only be called by the current owner."
      }
    },
    "version": 1
  },
  "userdoc": {
    "kind": "user",
    "methods": {},
    "version": 1
  }
}